:1000000007C1000034C1000032C1000030C100004F
:100010002EC100002CC100002AC1000028C1000030
:1000200026C1000024C1000022C1000020C1000040
:100030001EC100001CC100001AC1000018C1000050
:1000400016C100002BC4000012C1000010C1000046
:100050000EC100000CC100000AC10000D5C30000A1
:1000600006C100009BC3000070C3000000C1000077
:10007000FEC00000FCC00000FAC00000F8C0000094
:10008000F6C00000F4C00000F2C00000F0C00000A4
:10009000EEC00000ECC00000EAC00000E8C00000B4
:1000A000E6C00000E4C00000E2C00000E0C00000C4
:1000B000DEC00000DCC00000DAC00000D8C00000D4
:1000C000D6C00000D4C00000D2C00000D0C00000E4
:1000D000CEC00000CCC00000CAC00000C8C00000F4
:1000E000C6C000008A018D017C0180018401C40129
:1000F000910195019B019F01A301A901AD01B101EE
:10010000C401B701BB01BF0100002100240027008A
:100110002A002D0030003300010100000401070116
:100120000A0100002200250028002B002E003100CB
:10013000340002010000050108010B010505050559
:10014000070508080808020202020A0A080804044F
:10015000040401010101010101010303030303037D
:100160000303040707070C0C0C0C0C0C0C0C02020C
:10017000020206060606060606060B0B0B0B0B0B09
:100180000B0B010210202008081020401020408096
:10019000020102010804020101020408102040804B
:1001A00080402010080402018004020180402010D9
:1001B0000804020108040201010204081020408022
:1001C000010204081020408000000A0B02090C0DF7
:1001D0000E080703040100000000000000000000FA
:1001E000000000000000000000000000000000000F
:1001F00000000000121110000000000000000000CC
:100200000000000000000000000000000000ED04FD
:1002100011241FBECFEFD1E2DEBFCDBF00E00CBF87
:1002200023E0A2EDB2E001C01D92A43CB207E1F7C9
:1002300012E0A0E0B2E0EEE7F2E100E00BBF02C0A6
:1002400007900D92A23DB107D9F711E0C8E0D1E0C7
:1002500000E005C021970109802FFE0127D5C73096
:10026000D10780E00807B1F7F7D30C943D09C8CE59
:10027000E1EEF2E0A089B18982E08C93A485B58596
:100280001C92A685B7858FEC8C93108EA489B589B6
:1002900086E08C93A289B3898C9180618C93A2892A
:1002A000B3898C9188608C93A289B3898C91806882
:1002B0008C930288F389E02D80818F7D808308955F
:1002C000382FE5EDF1E04491EFE8F1E02491E9E425
:1002D000F1E09491992309F46BC0442309F454C0CC
:1002E00050E0FA013197E231F10508F04DC088275E
:1002F000EE58FF4F8F4FDAC4809180008F7707C090
:10030000809180008F7D03C080918000877F8093E3
:1003100080003AC084B58F7702C084B58F7D84BDDC
:1003200033C08091B0008F7703C08091B0008F7D83
:100330008093B00029C0809190008F7707C0809192
:1003400090008F7D03C080919000877F8093900004
:100350001BC08091A0008F7707C08091A0008F7D87
:1003600003C08091A000877F8093A0000DC0809182
:1003700020018F7707C0809120018F7D03C080917D
:100380002001877F80932001E92FF0E0EE0FFF1F0F
:10039000EE5DFE4FA591B4919FB7F894311104C062
:1003A0008C912095282302C0EC912E2B2C939FBF7B
:1003B0000895CF92DF92EF92FF920F931F93CF9306
:1003C000DF936C017A018B01C0E0D0E0CE15DF0530
:1003D00081F0D8016D918D01D601ED91FC910190D4
:1003E000F081E02DC6011995892B11F02196EECFF1
:1003F0007E01C701DF91CF911F910F91FF90EF9088
:10040000DF90CF900895089580E090E00895FC017A
:10041000538D448D252F30E0842F90E0821B930B69
:10042000541710F0CF96089501970895FC01918D0F
:10043000828D981761F0828DDF01A80FB11D5D9646
:100440008C91928D9F5F9F73928F90E008958FEFB4
:100450009FEF0895FC01918D828D981731F0828D68
:10046000E80FF11D858D90E008958FEF9FEF0895BF
:10047000FC01918D228D892F90E0805C9F4F821B23
:1004800091098F739927089581EE92E0F1DF21E0C1
:10049000892B09F420E0822F0895FC01848DDF016F
:1004A000A80FB11DA35ABF4F2C91848D90E00196E7
:1004B0008F739927848FA689B7892C93A089B189D6
:1004C0008C91837080648C93938D848D981306C077
:1004D0000288F389E02D80818F7D80830895EF92DB
:1004E000FF920F931F93CF93DF93EC0181E0888FEE
:1004F0009B8D8C8D981305C0E889F989808185FDD5
:1005000025C0F62E0B8D10E00F5F1F4F0F731127C4
:10051000E02E8C8DE8120BC00FB607FCFACFE889ED
:10052000F989808185FFF5CFCE01B7DFF2CF8B8DC2
:10053000FE01E80FF11DE35AFF4FF0829FB7F894D8
:100540000B8FEA89FB89808180620AC09FB7F8948B
:10055000EE89FF896083E889F989808183708064EE
:1005600080839FBF81E090E0DF91CF911F910F9139
:10057000FF90EF900895CF93DF93EC01888D88234F
:10058000C1F0EA89FB89808185FD05C0A889B98908
:100590008C9186FD0EC00FB607FCF5CF808185FFDC
:1005A000F2CFA889B9898C9185FFEDCFCE0175DF97
:1005B000E8CFDF91CF9108953FB7F8948091DD02A5
:1005C0009091DE02A091DF02B091E00226B5A89BD7
:1005D00005C02F3F19F00196A11DB11D3FBFBA2FD5
:1005E000A92F982F8827820F911DA11DB11DBC0135
:1005F000CD0142E0660F771F881F991F4A95D1F7FA
:1006000008958F929F92AF92BF92CF92DF92EF9216
:10061000FF926B017C01D0DF4B015C01C114D1045E
:10062000E104F104E9F0C8DFDC01CB018819990984
:10063000AA09BB09883E9340A105B10578F321E0E2
:10064000C21AD108E108F10888EE880E83E0981EEE
:10065000A11CB11CC114D104E104F10421F7DECFC7
:10066000FF90EF90DF90CF90BF90AF909F908F90D2
:1006700008952FB7F8946091D9027091DA028091B1
:10068000DB029091DC022FBF0895009761F0FC011E
:1006900001900020E9F73197AF01481B590BBC01CD
:1006A00081EE92E086CE80E090E00895CF93DF93D4
:1006B000ECDFEC018DE592E0E8DF8C0F9D1FDF9110
:1006C000CF91089581EE92E0B1DE813639F4109237
:1006D000D7021092D60282E192E002C08AE292E052
:1006E000E5CFD2DE811125C080E090E0892B41F07A
:1006F00080E090E0892B21F00E94000081111BC056
:1007000080E090E0892B41F080E090E0892B21F09F
:100710000E940000811112C080E090E0892B99F0C6
:1007200080E090E0892B79F00E940000811109C0DF
:100730000895C8DFD9CF0E940000E2CF0E940000D8
:10074000EBCF0C9400000895B9D21F920F920FB610
:100750000F9211240BB60F922F933F934F935F93F9
:100760006F937F938F939F93AF93BF93EF93FF9379
:1007700081EE92E092DEFF91EF91BF91AF919F9158
:100780008F917F916F915F914F913F912F910F903A
:100790000BBE0F900FBE0F901F9018951F920F92D7
:1007A0000FB60F9211240BB60F922F938F939F9336
:1007B000EF93FF93E091F102F091F2028081E091DA
:1007C000F702F091F80282FD12C090818091FA0246
:1007D0008F5F8F732091FB02821751F0E091FA0234
:1007E000F0E0EF51FD4F958F8093FA0201C08081B8
:1007F000FF91EF919F918F912F910F900BBE0F90D2
:100800000FBE0F901F9018951F920F920FB60F9268
:1008100011242F933F938F939F93AF93BF93809116
:10082000D9029091DA02A091DB02B091DC02309102
:10083000D80223E0230F2D3720F40196A11DB11D0E
:1008400005C026E8230F0296A11DB11D2093D802F2
:100850008093D9029093DA02A093DB02B093DC027A
:100860008091DD029091DE02A091DF02B091E00262
:100870000196A11DB11D8093DD029093DE02A0932D
:10088000DF02B093E002BF91AF919F918F913F91B2
:100890002F910F900FBE0F901F9018951F920F92DF
:1008A0000FB60F9211240BB60F928F929F92AF92B8
:1008B000BF92EF92FF920F931F932F933F934F930B
:1008C0005F936F937F938F939F93AF93BF93EF93B8
:1008D000FF93CF93DF93CDB7DEB7EC97DEBFCDBFED
:1008E0008091D7028F938091D6028F9389E792E00F
:1008F0009F938F938E010F5F1F4F1F930F93E2D132
:10090000C801D4DEE090D602F090D7020F900F908D
:100910000F900F900F900F9081E4E8168FE1F8068A
:100920003CF082E992E0C2DE85EA92E0BFDE16C0CA
:10093000A0DE8090D2029090D302A090D402B0901A
:10094000D502DC01CB0188199909AA09BB09B701B5
:10095000680F791F7093D7026093D6028ADE609386
:10096000D2027093D3028093D4029093D50281DE99
:100970009F938F937F936F938AEB92E09F938F93D4
:100980001F930F939FD1C80191DE0FB6F894DEBF7D
:100990000FBECDBFEC960FB6F894DEBF0FBECDBF35
:1009A000DF91CF91FF91EF91BF91AF919F918F9187
:1009B0007F916F915F914F913F912F911F910F9177
:1009C000FF90EF90BF90AF909F908F900F900BBED5
:1009D0000F900FBE0F901F901895E1EEF2E013827A
:1009E000128288EE93E0A0E0B0E084839583A68332
:1009F000B78384E092E09183808385EC90E09587D3
:100A0000848784EC90E09787868780EC90E0918BD8
:100A1000808B81EC90E0938B828B82EC90E0958BC5
:100A2000848B86EC90E0978B868B118E128E138EC2
:100A3000148EEEE7F3E01682178210861186128676
:100A400013861486158616861786108A118A128ACE
:100A5000138A148A158A0895CF93DF93CDB7DEB732
:100A6000E2970FB6F894DEBF0FBECDBF789484B581
:100A7000826084BD84B5816084BD85B5826085BD9A
:100A800085B5816085BD80916E00816080936E0028
:100A9000109281008091810082608093810080911A
:100AA00081008160809381008091800081608093CB
:100AB00080008091B10084608093B1008091B0008B
:100AC00081608093B000809191008260809391005A
:100AD000809191008160809391008091900081606D
:100AE000809390008091A10082608093A10080910A
:100AF000A10081608093A1008091A000816080931B
:100B0000A0008091210182608093210180912101C8
:100B10008160809321018091200181608093200178
:100B200080917A00846080937A0080917A0082605C
:100B300080937A0080917A00816080937A0080911E
:100B40007A00806880937A001092C1001092C003EE
:100B50001092C1031092C2031092C303109280033B
:100B600010928103109282031092830382DD6B0145
:100B70007C014B015C0188EB880E8BE0981EA11C68
:100B8000B11C77DD6C157D058E059F0528F0861656
:100B90009706A806B906A8F760ED77E080E090E038
:100BA00030DD66DB66DD60938003709381038093A4
:100BB0008203909383038EE492E067DD5ADD6B013C
:100BC0007C014B015C018AE0880E911CA11CB11CC8
:100BD00050DD6C157D058E059F0528F0861697065D
:100BE000A806B906A8F781E08093940341DB1F9221
:100BF00082E08F9380E692E09F938F938E010F5F48
:100C00001F4F1F930F935ED0C80150DDEFE8F1E056
:100C10002491E9E4F1E084910F900F900F900F90F0
:100C20000F900F90882399F090E0880F991FFC0196
:100C3000E85FFE4FA591B491FC01EE5DFE4F8591FA
:100C400094918FB7F894EC91E22BEC938FBFF894CA
:100C50001092800010928100109285001092840002
:100C600082E19AE7909389008093880080918100C7
:100C700088608093810080918100846080938100EE
:100C800080916F00826080936F00789481E018DB20
:100C90006CE271E080E090E0B4DC80E011DB6CE2BB
:100CA00071E080E090E0ADDC1CDDF0CFEE0FFF1FC7
:100CB000881F8BBF0790F691E02D199481E090E09A
:100CC000F894DBC20F931F93CF93DF93CDB7DEB7BA
:100CD0002E970FB6F894DEBF0FBECDBF0E891F89C9
:100CE00086E08C831A8309838FEF9FE79E838D8331
:100CF000AE01465E5F4F688D798DCE01019610D0B2
:100D0000EF81F885E00FF11F10822E960FB6F89450
:100D1000DEBF0FBECDBFDF91CF911F910F91089520
:100D20002F923F924F925F926F927F928F929F92FB
:100D3000AF92BF92CF92DF92EF92FF920F931F93E9
:100D4000CF93DF93CDB7DEB72B970FB6F894DEBF06
:100D50000FBECDBF6C017B018A01FC011782168298
:100D6000838181FFBFC1CE0101963C01F6019381D1
:100D7000F70193FD859193FF81917F01882309F409
:100D8000ADC1853239F493FD859193FF81917F0147
:100D9000853221F4B60190E0D6D1E8CF912C212CF8
:100DA000312CFFE1F315D8F08B3279F038F4803232
:100DB00079F08332A1F4232D20611DC08D3261F0C2
:100DC000803369F4232D216016C0832D8260382E74
:100DD000E32DE4603E2E2AC0F32DF8601DC037FCE1
:100DE0002DC020ED280F2A3040F08E32B9F436FCA9
:100DF00075C1232D2064322E19C036FE06C08AE04C
:100E0000989E200D1124922E11C0EAE02E9E200DF6
:100E10001124222EF32DF0623F2E08C08C3621F4CF
:100E2000832D8068382E02C0883641F4F70193FD87
:100E3000859193FF81917F018111B3CF982F9F7D81
:100E40009554933028F40C5F1F4F9FE399830DC096
:100E5000833631F0833771F0833509F055C020C0F7
:100E6000F801808189830E5F1F4F88248394912C21
:100E7000530112C02801F2E04F0E511CF801A0806E
:100E8000B18036FE03C0692D70E002C06FEF7FEFC6
:100E9000C5014ED14C018201F32DFF773F2E15C0C5
:100EA000280122E0420E511CF801A080B18036FEDC
:100EB00003C0692D70E002C06FEF7FEFC5012DD137
:100EC0004C01F32DF0683F2E820133FC19C0822DB6
:100ED00090E088169906A0F4B60180E290E033D144
:100EE0002A94F5CFF50137FC859137FE81915F019A
:100EF000B60190E028D121102A9421E0821A9108AD
:100F00008114910479F7E1C0843611F0893639F5FE
:100F1000F80137FE07C060817181828193810C5F87
:100F20001F4F08C060817181072E000C880B990B40
:100F30000E5F1F4FF32DFF763F2E97FF09C0909550
:100F40008095709561957F4F8F4F9F4FF0683F2E32
:100F50002AE030E0A30133D1882E861844C08537BB
:100F600031F4232D2F7EB22E2AE030E025C0932DC0
:100F7000997FB92E8F36C1F018F4883579F0AEC05C
:100F8000803719F0883721F0A9C0E92FE061BE2E23
:100F9000B4FE0DC0FB2DF460BF2E09C034FE0AC0A4
:100FA000292F2660B22E06C028E030E005C020E1DF
:100FB00030E002C020E132E0F801B7FE07C06081F6
:100FC0007181828193810C5F1F4F06C060817181A6
:100FD00080E090E00E5F1F4FA301F1D0882E8618AD
:100FE000FB2DFF773F2E36FE0DC0232D2E7FA22E28
:100FF000891458F434FE0BC032FC09C0832D8E7E58
:10100000A82E05C0B82CA32C03C0B82C01C0B92C45
:10101000A4FE0FC0FE01E80DF11D8081803321F494
:101020009A2D997EA92E09C0A2FE06C0B394B3944E
:1010300004C08A2D867809F0B394A3FC10C0A0FEEA
:1010400006C0B21480F4280C922C9B180DC0B21468
:1010500058F4B60180E290E076D0B394F8CFB214A1
:1010600018F42B1802C0982C212CA4FE0FC0B60136
:1010700080E390E068D0A2FE16C0A1FC03C088E720
:1010800090E002C088E590E0B6010CC08A2D867819
:1010900051F0A1FE02C08BE201C080E2A7FC8DE20C
:1010A000B60190E050D0891430F4B60180E390E0AE
:1010B0004AD09A94F8CF8A94F301E80DF11D80810B
:1010C000B60190E040D08110F6CF222009F44ECE38
:1010D000B60180E290E037D02A94F7CFF6018681FE
:1010E000978102C08FEF9FEF2B960FB6F894DEBF6B
:1010F0000FBECDBFDF91CF911F910F91FF90EF9069
:10110000DF90CF90BF90AF909F908F907F906F9027
:101110005F904F903F902F900895FC010590615093
:1011200070400110D8F7809590958E0F9F1F0895FD
:10113000FC016150704001900110D8F780959095A6
:101140008E0F9F1F08950F931F93CF93DF93FB0183
:10115000238121FD03C08FEF9FEF2CC022FF16C01B
:1011600046815781248135814217530744F4A08179
:10117000B1819D012F5F3F4F318320838C93268166
:1011800037812F5F3F4F3783268314C08B01EC01DB
:10119000FB010084F185E02D1995892BE1F6D8013A
:1011A00016968D919C911797019617969C938E9306
:1011B0001697CE01DF91CF911F910F910895FA01FB
:1011C000AA27283051F1203181F1E8946F936E7F86
:1011D0006E5F7F4F8F4F9F4FAF4FB1E03ED0B4E077
:1011E0003CD0670F781F891F9A1FA11D680F791FB8
:1011F0008A1F911DA11D6A0F711D811D911DA11DC9
:1012000020D009F468943F912AE0269F11243019D8
:10121000305D3193DEF6CF010895462F4770405D73
:101220004193B3E00FD0C9F7F6CF462F4F70405D22
:101230004A3318F0495D31FD4052419302D0A9F77D
:10124000EACFB4E0A6959795879577956795BA9577
:10125000C9F700976105710508959B01AC010A2E3D
:1012600006945795479537952795BA95C9F7620F14
:0E127000731F841F951FA01D0895F894FFCFD3
:10127E00000000006F02D9010702BB0238021602FD
:10128E002A025761746368646F67207265736574B0
:10129E0020726563656976656400496E636F72726C
:1012AE00656374207761746368646F67206D65731E
:1012BE007361676520726563656976656400564D76
:1012CE004450565F317C315F564D4450560D0A00E6
:1012DE00496E697469616C697A696E6720556E69C9
:1012EE0074204E6F2E2025640043757272656E74E5
:1012FE00206D696C6C697365636F6E64733A20253B
:10130E0064005761746368646F6720616374697603
:10131E00617465640041637469766174696E6720F7
:10132E007468697320756E697400546F74616C20F3
:10133E006D696C6C697365636F6E64733A202564B6
:02134E0000009D
:00000001FF
